{
  "_format": "hh-sol-artifact-1",
  "contractName": "MedicalRecordAudit",
  "sourceName": "contracts/MedicalRecordAudit.sol",
  "abi": [
    {
      "inputs": [],
      "stateMutability": "nonpayable",
      "type": "constructor"
    },
    {
      "anonymous": false,
      "inputs": [
        {
          "indexed": false,
          "internalType": "uint256",
          "name": "recordId",
          "type": "uint256"
        },
        {
          "indexed": false,
          "internalType": "string",
          "name": "recordType",
          "type": "string"
        },
        {
          "indexed": false,
          "internalType": "string",
          "name": "action",
          "type": "string"
        },
        {
          "indexed": false,
          "internalType": "uint256",
          "name": "timestamp",
          "type": "uint256"
        }
      ],
      "name": "RecordAction",
      "type": "event"
    },
    {
      "inputs": [],
      "name": "admin",
      "outputs": [
        {
          "internalType": "address",
          "name": "",
          "type": "address"
        }
      ],
      "stateMutability": "view",
      "type": "function"
    },
    {
      "inputs": [
        {
          "internalType": "uint256",
          "name": "recordId",
          "type": "uint256"
        },
        {
          "internalType": "string",
          "name": "recordType",
          "type": "string"
        },
        {
          "internalType": "string",
          "name": "action",
          "type": "string"
        }
      ],
      "name": "logAction",
      "outputs": [],
      "stateMutability": "nonpayable",
      "type": "function"
    }
  ],
  "bytecode": "0x6080604052348015600f57600080fd5b50600080546001600160a01b031916331790556102de806100316000396000f3fe608060405234801561001057600080fd5b50600436106100365760003560e01c8063082826f91461003b578063f851a44014610050575b600080fd5b61004e6100493660046101b3565b61007f565b005b600054610063906001600160a01b031681565b6040516001600160a01b03909116815260200160405180910390f35b6000546001600160a01b031633146100cc5760405162461bcd60e51b815260206004820152600c60248201526b155b985d5d1a1bdc9a5e995960a21b604482015260640160405180910390fd5b7f79bea5749f85b788cb820b1a6f690f8392c68757846b509711ea9962d9a594c983838342604051610101949392919061026b565b60405180910390a1505050565b634e487b7160e01b600052604160045260246000fd5b600082601f83011261013557600080fd5b813567ffffffffffffffff81111561014f5761014f61010e565b604051601f8201601f19908116603f0116810167ffffffffffffffff8111828210171561017e5761017e61010e565b60405281815283820160200185101561019657600080fd5b816020850160208301376000918101602001919091529392505050565b6000806000606084860312156101c857600080fd5b83359250602084013567ffffffffffffffff8111156101e657600080fd5b6101f286828701610124565b925050604084013567ffffffffffffffff81111561020f57600080fd5b61021b86828701610124565b9150509250925092565b6000815180845260005b8181101561024b5760208185018101518683018201520161022f565b506000602082860101526020601f19601f83011685010191505092915050565b8481526080602082015260006102846080830186610225565b82810360408401526102968186610225565b9150508260608301529594505050505056fea26469706673582212201a72e5e93b6c595bde4adde1901ec5872ead35ca25d9ebb5e2041d0e2ebc901964736f6c634300081c0033",
  "linkReferences": {},
  "deployedLinkReferences": {}
}